:020000040800F2
:1000000068060020650100088B0100088D010008CA
:1000100000000000000000000000000000000000E0
:100020000000000000000000000000008F01000838
:10003000000000000000000091010008930100088A
:100040009501000895010008950100089501000838
:100050009501000895010008950100089501000828
:100060009501000895010008950100089501000818
:100070009501000895010008950100089501000808
:100080009501000800000000000000009501000834
:100090000000000095010008950100089501000886
:1000A0000000000095010008950100089501000876
:1000B0009501000800000000950100089501000866
:1000C00000F002F800F03EF80CA030C80838241800
:1000D0002D18A246671EAB4654465D46AC4201D180
:1000E00000F030F87E460F3E0FCCB6460126334274
:1000F00000D0FB1AA246AB46334318475005000018
:1001000070050000103A02D378C878C1FAD85207B7
:1001100001D330C830C101D504680C6070470000BD
:100120000023002400250026103A01D378C1FBD813
:10013000520700D330C100D50B6070471FB51FBDFB
:1001400010B510BD00F0F8F81146FFF7F7FF00F00A
:1001500037FA00F010F903B4FFF7F2FF03BC00F028
:1001600017F900000F4880F308880F480168090E4E
:100170000E4A914205D10E480E4901600E480F49C2
:1001800001600F4880470F480047FEE7FEE7FEE7A3
:10019000FEE7FEE7FEE700000B480C490C4A0D4B5A
:1001A0007047000068060020040000001F000000E7
:1001B0001810024001000000000001400000000093
:1001C0004D050008C10000086800002068060020F6
:1001D0006802002068020020002203098B422CD311
:1001E000030A8B4211D300239C464EE003460B4387
:1001F0003CD4002243088B4231D303098B421CD3E9
:10020000030A8B4201D394463FE0C3098B4201D3DA
:10021000CB01C01A524183098B4201D38B01C01A12
:10022000524143098B4201D34B01C01A5241030989
:100230008B4201D30B01C01A5241C3088B4201D338
:10024000CB00C01A524183088B4201D38B00C01AE5
:10025000524143088B4201D34B00C01A5241411A0C
:1002600000D201465241104670475DE0CA0F00D0EF
:100270004942031000D34042534000229C460309E8
:100280008B422DD3030A8B4212D3FC22890112BA6E
:10029000030A8B420CD3890192118B4208D3890146
:1002A00092118B4204D389013AD0921100E089095E
:1002B000C3098B4201D3CB01C01A524183098B423F
:1002C00001D38B01C01A524143098B4201D34B0128
:1002D000C01A524103098B4201D30B01C01A52418B
:1002E000C3088B4201D3CB00C01A524183088B4212
:1002F00001D38B00C01A5241D9D243088B4201D39B
:100300004B00C01A5241411A00D201466346524185
:100310005B10104601D34042002B00D54942704784
:1003200063465B1000D3404201B50020C046C04682
:1003300002BD704770477047754600F025F8AE461D
:10034000050069465346C008C000854618B020B570
:10035000FFF722FF60BC00274908B6460026C0C54B
:10036000C0C5C0C5C0C5C0C5C0C5C0C5C0C5403D6D
:1003700049008D46704710B50446C046C046204629
:10038000FFF7E9FE10BD00000048704704000020A0
:1003900001491820ABBEFEE726000200704701E0CD
:1003A00000BF401E0028FBD170470000274840696D
:1003B0000121490408432549486108468069891498
:1003C000084322498861084640690121890508439C
:1003D0001E4948610846C0690121490508431B4977
:1003E000C8611B480921C90608601A48886048107E
:1003F000C86004201849086018484860084600682A
:10040000402108431449086015480068400840002E
:10041000134908601120134908620C48006B102131
:1004200008430A4908630A200E490860032048600F
:100430000F2088600520C8600B48094908610846FC
:100440000068012108430649086070470010024017
:10045000008A002800CF000C003001400C0F000083
:1004600000540040001400482B1D200000BF054A26
:10047000926802231A40002AF9D002020A43014B73
:10048000DA6070470030014042002D4B5A601A4636
:10049000526801231B041A43294B5A601A465268BA
:1004A0005B141A43264B5A6000BF254A9269022307
:1004B0001A40002AF9D00022214B9A6200BF204A3C
:1004C000926940231A40002AF9D01D4A52681B0243
:1004D0001A431B4B5A604200521C5A601A4652681B
:1004E00001235B041A43164B5A601A4652681B15C7
:1004F0001A43134B5A601A4652685B141A43104B46
:100500005A6000BF0E4A926904231A40002AF9D0AB
:100510000B4A526A0B4B1A7000BF094A92690423B6
:100520001A40002AF9D0064A526A074B1A70044A48
:10053000526801239B031A43014B5A607047000025
:10054000005400400000002001000020194800680D
:1005500001210843174908600846406816490840C9
:100560001449486008460068144908401149086069
:10057000084600680121890488430E49086008463E
:1005800040683F21090488430A4948600846C06A18
:1005900000090001C8620846006BFF21D43188437E
:1005A000044908630846406B400840004863002047
:1005B00088607047001002400CB8FF08FFFFF6FE8D
:1005C000FFF7F4FE00210846FFF750FFFF21092046
:1005D000FFF74CFFFF210A20FFF748FFFF210B2008
:1005E000FFF744FFFF210C20FFF740FF00210F2001
:1005F000FFF73CFF012404E0E0B20A21FFF736FFD9
:10060000641C092CF8DB1BE00E4801784820FFF73A
:100610003BFF0A210B480078FFF7E8FDCCB22146EA
:100620000120FFF723FF0A2106480078FFF7DEFDCF
:10063000C4B221460220FFF719FF0348FFF7AFFEBF
:10064000E2E7000000000020307500006C060008A2
:1006500000000020040000000401000870060008EB
:1006600004000020640600002001000800000000D3
:04000005080000C12E
:00000001FF
