:020000040800F2
:1000000060060020490100086F0100087101000826
:1000100000000000000000000000000000000000E0
:100020000000000000000000000000007301000854
:1000300000000000000000007501000877010008C2
:1000400079010008790100087901000879010008A8
:100050007901000879010008790100087901000898
:100060007901000879010008790100087901000888
:100070007901000879010008790100087901000878
:10008000790100080000000000000000790100086C
:1000900000000000790100087901000879010008DA
:1000A00000000000790100087901000879010008CA
:1000B00079010008000000007901000879010008BA
:1000C00000F002F800F030F80CA030C8083824180E
:1000D0002D18A246671EAB4654465D46AC4201D180
:1000E00000F022F87E460F3E0FCCB6460126334282
:1000F00000D0FB1AA246AB46334318470403000066
:10010000140300000023002400250026103A01D328
:1001100078C1FBD8520700D330C100D50B607047BF
:100120001FB51FBD10B510BD00F04BF81146FFF70D
:10013000F7FF00F025F900F063F803B4FFF7F2FFD2
:1001400003BC00F069F800000F4880F308880F48EE
:100150000168090E0E4A914205D10E480E49016010
:100160000E480F4901600F4880470F480047FEE7DF
:10017000FEE7FEE7FEE7FEE7FEE700000B480C495E
:100180000C4A0D4B70470000600600200400000080
:100190001F00000018100240010000000000014094
:1001A000000000000D030008C100000860000020EE
:1001B0006006002060020020600200207047704747
:1001C0007047754600F024F8AE4605006946534670
:1001D000C008C000854618B020B5FFF7CFFF60BC4F
:1001E00000274908B6460026C0C5C0C5C0C5C0C561
:1001F000C0C5C0C5C0C5C0C5403D49008D4670479B
:1002000010B50446C046C0462046FFF796FF10BD15
:10021000004870470000002001491820ABBEFEE7EF
:1002200026000200704701E000BF401E0028FBD1FD
:10023000704700001E4840690121490408431C49D9
:10024000486108468069891408431949886108464D
:10025000C0690121490508431549C86115480921AC
:10026000C9060860144888604810C8600420134913
:1002700008601348486008460068402108430F4959
:10028000086010480068400840000E4908600A20D5
:100290000D490860032048600F2088600B48094919
:1002A0000861084600680121084306490860704754
:1002B00000100240008A002800CF000C00300140EE
:1002C0000C0F000000540040001400482B1D2000BB
:1002D00000BF054A926802231A40002AF9D00202A0
:1002E0000A43014BDA60704700300140064A526809
:1002F00001235B031A43044B5A601A4652681B14CD
:100300001A43014B5A607047005400401948006876
:10031000012108431749086008464068164908400B
:1003200014494860084600681449084011490860AB
:10033000084600680121890488430E490860084680
:1003400040683F21090488430A4948600846C06A5A
:1003500000090001C8620846006BFF21D4318843C0
:10036000044908630846406B400840004863002089
:1003700088607047001002400CB8FF08FFFFF6FECF
:10038000FFF758FF00210846FFF7A2FFFF210920D1
:10039000FFF79EFFFF210A20FFF79AFFFF210B20A6
:1003A000FFF796FFFF210C20FFF792FF00210F209F
:1003B000FFF78EFF012404E0E0B20A21FFF788FF77
:1003C000641C092CF8DB00216820FFF78FFF13E085
:1003D00001250FE0012407E02A19D1B20922121BDE
:1003E000D0B2FFF775FF641C092CF5DB0348FFF75B
:1003F0001AFF6D1C102DEDDBEAE70000E09304000E
:10040000100400080000002060060000040100083D
:04000005080000C12E
:00000001FF
