:020000040800F2
:1000000068060020650100088B0100088D010008CA
:1000100000000000000000000000000000000000E0
:100020000000000000000000000000008F01000838
:10003000000000000000000091010008930100088A
:100040009501000895010008950100089501000838
:100050009501000895010008950100089501000828
:100060009501000895010008950100089501000818
:100070009501000895010008950100089501000808
:100080009501000800000000000000009501000834
:100090000000000095010008950100089501000886
:1000A0000000000095010008950100089501000876
:1000B0009501000800000000950100089501000866
:1000C00000F002F800F03EF80CA030C80838241800
:1000D0002D18A246671EAB4654465D46AC4201D180
:1000E00000F030F87E460F3E0FCCB6460126334274
:1000F00000D0FB1AA246AB4633431847A4030000C6
:10010000C4030000103A02D378C878C1FAD8520765
:1001100001D330C830C101D504680C6070470000BD
:100120000023002400250026103A01D378C1FBD813
:10013000520700D330C100D50B6070471FB51FBDFB
:1001400010B510BD00F04BF81146FFF7F7FF00F0B7
:1001500071F900F063F803B4FFF7F2FF03BC00F09D
:1001600069F800000F4880F308880F480168090EFD
:100170000E4A914205D10E480E4901600E480F49C2
:1001800001600F4880470F480047FEE7FEE7FEE7A3
:10019000FEE7FEE7FEE700000B480C490C4A0D4B5A
:1001A0007047000068060020040000001F000000E7
:1001B0001810024001000000000001400000000093
:1001C000C1030008C1000008680000206806002084
:1001D000680200206802002070477047704775462B
:1001E00000F024F8AE46050069465346C008C0003A
:1001F000854618B020B5FFF7CFFF60BC002749083F
:10020000B6460026C0C5C0C5C0C5C0C5C0C5C0C5AE
:10021000C0C5C0C5403D49008D46704710B5044675
:10022000C046C0462046FFF796FF10BD0048704705
:100230000400002001491820ABBEFEE726000200A2
:10024000704701E000BF401E0028FBD1704700004E
:100250001E4840690121490408431C494861084679
:10026000806989140843194988610846C0690121D9
:10027000490508431549C86115480921C9060860A0
:10028000144888604810C860042013490860134867
:10029000486008460068402108430F49086010483C
:1002A0000068400840000E4908600A200D490860B7
:1002B000032048600F2088600B4809490861084600
:1002C0000068012108430649086070470010024099
:1002D000008A002800CF000C003001400C0F000005
:1002E00000540040001400482B1D200000BF054AA8
:1002F000926802231A40002AF9D002020A43014BF5
:10030000DA6070470030014042002B4B5A601A46B9
:10031000526801231B041A43274B5A601A4652683D
:1003200001235B061A43244B5A601A4652685B1439
:100330001A43214B5A6000BF1F4A9269D207D20F5D
:10034000002AF9D000221C4B9A6200BF1A4A926917
:1003500040231A40002AF9D0174A52681B021A4358
:10036000154B5A604200521C5A601A4652680123CB
:100370001B041A43104B5A601A4652681B151A4345
:100380000D4B5A601A4652685B141A430A4B5A6066
:1003900000BF094A926904231A40002AF9D0064A8C
:1003A000526A064B1A70044A526801239B031A438F
:1003B000014B5A60704700000054004000000020CC
:1003C0001948006801210843174908600846406839
:1003D0001649084014494860084600681449084016
:1003E00011490860084600680121890488430E49C4
:1003F0000860084640683F21090488430A4948606C
:100400000846C06A00090001C8620846006BFF2167
:10041000D4318843044908630846406B40084000D3
:100420004863002088607047001002400CB8FF0845
:10043000FFFFF6FEFFF70CFF00210846FFF756FF0F
:10044000FF210920FFF752FFFF210A20FFF74EFF8F
:10045000FF210B20FFF74AFFFF210C20FFF746FF8B
:1004600000210F20FFF742FF012404E0E0B20A213F
:10047000FFF73CFF641C092CF8DB0CE00648017810
:100480006820FFF741FF044801780120FFF72EFFA5
:100490000248FFF7D6FEF1E700000020E0930400D9
:1004A000C00400080000002004000000040100084F
:1004B000C4040008040000206406000020010008B5
:0404C0000000000038
:04000005080000C12E
:00000001FF
