:020000040800F2
:1000000068060020650100088B0100088D010008CA
:1000100000000000000000000000000000000000E0
:100020000000000000000000000000008F01000838
:10003000000000000000000091010008930100088A
:100040009501000895010008950100089501000838
:100050009501000895010008950100089501000828
:100060009501000895010008950100089501000818
:100070009501000895010008950100089501000808
:100080009501000800000000000000009501000834
:100090000000000095010008950100089501000886
:1000A0000000000095010008950100089501000876
:1000B0009501000800000000950100089501000866
:1000C00000F002F800F03EF80CA030C80838241800
:1000D0002D18A246671EAB4654465D46AC4201D180
:1000E00000F030F87E460F3E0FCCB6460126334274
:1000F00000D0FB1AA246AB463343184790040000D9
:10010000B0040000103A02D378C878C1FAD8520778
:1001100001D330C830C101D504680C6070470000BD
:100120000023002400250026103A01D378C1FBD813
:10013000520700D330C100D50B6070471FB51FBDFB
:1001400010B510BD00F04BF81146FFF7F7FF00F0B7
:10015000B9F900F063F803B4FFF7F2FF03BC00F055
:1001600069F800000F4880F308880F480168090EFD
:100170000E4A914205D10E480E4901600E480F49C2
:1001800001600F4880470F480047FEE7FEE7FEE7A3
:10019000FEE7FEE7FEE700000B480C490C4A0D4B5A
:1001A0007047000068060020040000001F000000E7
:1001B0001810024001000000000001400000000093
:1001C00051040008C10000086800002068060020F3
:1001D000680200206802002070477047704775462B
:1001E00000F024F8AE46050069465346C008C0003A
:1001F000854618B020B5FFF7CFFF60BC002749083F
:10020000B6460026C0C5C0C5C0C5C0C5C0C5C0C5AE
:10021000C0C5C0C5403D49008D46704710B5044675
:10022000C046C0462046FFF796FF10BD0048704705
:100230000400002001491820ABBEFEE726000200A2
:10024000704701E000BF401E0028FBD1704700004E
:100250003948406901214904084337494861084643
:10026000806989140843344988610846406901213E
:1002700089050843304948610846C069012149059C
:1002800008432D49C8612D480921C90608602C483A
:1002900088604810C86004202A4908602A484860DD
:1002A000084600684021084326490860274800683E
:1002B00040084000254908601120254908621E4871
:1002C000006B102108431C4908630A20204908607C
:1002D000032048600F2088601E481C4908610846BA
:1002E00000680121084319490860D0204860084689
:1002F00040680121090408431449486008464068E1
:10030000491408431149486000BF10488069022120
:1003100008400028F9D000200C49886200BF0B4833
:100320008069402108400028F9D008484068090247
:10033000084306494860704700100240008A0028C0
:1003400000CF000C003001400C0F000000540040B2
:10035000001400482B1D200000BF054A92680223AC
:100360001A40002AF9D002020A43014BDA607047B2
:10037000003001404200324B5A601A465268012355
:100380001B041A432E4B5A601A4652685B141A43D8
:100390002B4B5A6000BF2A4A926902231A40002A56
:1003A000F9D00022264B9A6200BF254A9269402369
:1003B0001A40002AF9D0224A52681B021A43204BE5
:1003C0005A604200521C5A601A46526803231B04AA
:1003D0001A431B4B5A601A4652681B151A43184B96
:1003E0005A601A4652685B141A43154B5A6000BF94
:1003F000134A926904231A40002AF9D0104A526A1B
:10040000104B1A7000BF0E4A926904231A40002A4A
:10041000F9D00B4A526A0C4B1A7000BF084A926915
:1004200004231A40002AF9D0054A526A074B1A7071
:10043000034A526801239B031A43014B5A607047D9
:1004400000540040000000200100002002000020B5
:1004500019480068012108431749086008464068A8
:100460001649084014494860084600681449084085
:1004700011490860084600680121890488430E4933
:100480000860084640683F21090488430A494860DB
:100490000846C06A00090001C8620846006BFF21D7
:1004A000D4318843044908630846406B4008400043
:1004B0004863002088607047001002400CB8FF08B5
:1004C000FFFFF6FEFFF7C4FE00210846FFF744FFDA
:1004D000FF210920FFF740FFFF210A20FFF73CFF23
:1004E000FF210B20FFF738FFFF210C20FFF734FF1F
:1004F00000210F20FFF730FF012404E0E0B20A21C1
:10050000FFF72AFF641C092CF8DB35E01B48017853
:100510006820FFF72FFF194800780107090F012015
:10052000FFF71AFF154800784006410F0220FFF739
:1005300013FF134800780007000F014680310320A5
:10054000FFF70AFF0E4800784006410F0420FFF72E
:1005500003FF0C4800780007000F0146803105209A
:10056000FFF7FAFE074800784006410F0620FFF724
:10057000F3FE0548FFF765FEC8E700000000002015
:10058000010000200200002030750000AC050008CA
:10059000000000200400000004010008B00500086D
:1005A0000400002064060000200100080000000094
:04000005080000C12E
:00000001FF
